:020000040800F2
:10000000705001209DD20008E1020008E3020008C0
:1000100001030008030300080503000800000000B6
:100020000000000000000000000000009D0100082A
:100030000703000800000000F9010008D95F00086C
:10004000B7D20008B7D20008B7D20008B7D200086C
:10005000B7D20008B7D20008B7D20008B7D200085C
:10006000B7D20008B7D20008B7D20008B7D200084C
:10007000B7D20008B7D20008B7D20008B7D200083C
:10008000B7D20008B7D20008B7D20008B7D200082C
:10009000E1BD0008B7D20008B7D20008B7D2000807
:1000A000B7D20008B7D20008B7D20008B7D200080C
:1000B000B7D20008B7D20008B7D20008B7D20008FC
:1000C000B7D20008B7D20008B7D20008B7D20008EC
:1000D000B7D2000827640008B7D20008DDB40008D2
:1000E000B7D20008B7D20008B7D20008B7D20008CC
:1000F000B7D20008B7D20008B7D20008B7D20008BC
:10010000B7D20008B7D20008B7D20008B7D20008AB
:10011000B7D20008B7D20008B7D20008B7D200089B
:10012000B7D20008B7D20008B7D20008B7D200088B
:10013000B7D200080000000000000000B7D200089D
:10014000B7D2000825C10008B7D20008B7D200080E
:10015000B7D20008B7D20008B7D200086962000819
:10016000B7D20008B7D20008B7D20008B7D200084B
:10017000B7D20008B7D2000800000000000000005D
:10018000B7D20008B7D20008DFF80CD00EF098F80C
:10019000004800475B020008705001202C4B196892
:1001A0000868B0E8F04F80F30988BFF36F8F4FF015
:1001B000000080F3118870470000000008480068C4
:1001C000006880F308884FF0000080F3148862B65E
:1001D00061B6BFF34F8FBFF36F8F00DF00BF00BF6B
:1001E00008ED00E0DFF80C00016841F470010160E7
:1001F000704700BF88ED00E0EFF30980BFF36F8F19
:10020000134B1A681EF0100F08BF20ED108A20E96A
:10021000F04F106009B44FF0100080F31188BFF365
:100220004F8FBFF36F8F04F086F94FF0000080F31B
:10023000118809BC19680868B0E8F04F1EF0100F6B
:1002400008BFB0EC108A80F30988BFF36F8F704746
:1002500010000020EFF3058070474FF4407000F06D
:1002600057F8A82005F0C2FE4FF4E134204606F00E
:100270007BF8204605F014FF0BF01CF805F0C4FDD8
:1002800005F081FC05F093FC05F04AFC4FF4FA7090
:1002900005F0DDFE08F08DFB0028FBD109F07AFDAA
:1002A00008F040F809F0AEFD05F09FFC0AF08BF96C
:1002B00002F0A2FBFEE770B504460D4645F255502C
:1002C00000F098FE204600F098FE284600F098FEC8
:1002D00000F099FEBDE8704000F09ABE00F093BEB9
:1002E0007047012080F31388BFF34F8F06480168E1
:1002F000064A01F4E06111430160BFF34F8FFEE74E
:10030000FEE7FEE7FEE770470CED00E00400FA05AB
:100310002849084328490860704730B50F23C27840
:1003200001780125FAB1244A126801F1E02102F4B2
:10033000E062C2F5E062C2F30722C2F10404D340D6
:100340004278A24084781C401443220181F80024A2
:10035000007800F01F018D404009800000F1E0208E
:10036000C0F8005130BD01F01F00854048098000F1
:1003700000F1E020C0F8805130BD104A1140014327
:100380000D48001F016070470B4A121D00291168BB
:1003900001D0014300E08143116070474FF0E0213C
:1003A0000428086903D020F004000861704740F079
:1003B0000400FAE70000FA050CED00E080FFFF1FE3
:1003C000FE4910B588424FF0010101D14C0601E011
:1003D0004FF08064204600F0E4FF2046BDE8104066
:1003E000002100F0DEBF10B50368002223F00203F5
:1003F0000360036843F0010303604FF6FF7300E0FE
:10040000521C4468E40701D19A42F9D14268D207EC
:100410003ED08A79012A02683CD022F08002026034
:10042000CA79012A026838D022F0400202600A7AB2
:10043000012A026834D022F0200202604A7A012A9E
:10044000026830D022F0100202608A7A012A026823
:100450002CD022F008020260CA7A012A026828D051
:1004600022F0040202608A78CC78920742EA0462A1
:100470000C7942EA04424C79098842EA0452491E46
:100480000A43C261016821F001010160002114E00A
:10049000002010BD42F08002C1E742F04002C5E7F3
:1004A00042F02002C9E742F01002CDE742F0080214
:1004B000D1E742F00402D5E7491C4268D20701D0D7
:1004C0009942F9D14068C007E2D1012010BDF0B5D2
:1004D000827ABB4D012191402A6842F001022A60D4
:1004E000B74E1C3632688A433260B54A047BB54B3E
:1004F0000C32A4B914688C4314604488C78844EA59
:100500000744877A03EBC707C7F840460488878803
:1005100044EA0744877A03EBC707C7F84446047BDD
:10052000012C12D114680C431460847A026803EB26
:10053000C4044FEA3242C4F84026847A426803EB8E
:10054000C4034FEA3242C3F844269D4AC37A121DBF
:10055000002B136806D00B431360994A03891432A9
:1005600013B104E08B43F7E713688B4313600389EF
:10057000012B02D113680B431360407B012802D189
:10058000306808433060286820F001002860F0BD22
:1005900000218171C171017241728172C1728170D9
:1005A000C170032101710221417101210180704755
:1005B00083490A6842F001020A600A6843F60E7332
:1005C0009A430A600A6842EA00200860086820F03E
:1005D0000100086070470029016802D041F48031B1
:1005E00001E021F48031016070470029016813D0D7
:1005F00041F080010160D0F8841141F48071C0F8AD
:100600008411D0F8941141F48071C0F89411D0F89D
:10061000A41141F4807112E021F080010160D0F852
:10062000841121F48071C0F88411D0F8941121F460
:100630008071C0F89411D0F8A41121F48071C0F831
:10064000A411704730B50246002093685B0108D4BE
:100650009068000101D5012003E09068C00037D503
:10066000022002EB0012D2F8803103F00103C2F83D
:1006700080310B7A73B3D2F880414D681C434B7ABA
:1006800043EAC5031C43C2F880418B7A03F00F0391
:100690008B72D2F8843123F00F03C2F88431D2F880
:1006A00084318C7A2343C2F88431CB7ACC6843EA14
:1006B0000423C2F88831CB7B096943EA0121C2F8DF
:1006C0008C11D2F8801141F00101C2F8801130BDC7
:1006D000042030BDD2F880314C7A23430C8843EAA1
:1006E0004453C2F88031D0E7002221B1012905D05E
:1006F000022906D112E08268334801E0826833485B
:1007000002403349501A8A4214D00ADCA2B16FF079
:10071000806010180FD002280CD10FE082682D489D
:10072000EEE7B0F5007F09D02B49401803D0B0F5B3
:10073000003F03D00020704702207047012070471F
:1007400041B101290AD0022903D1816841F4000195
:1007500081607047816841F08001F9E7816841F468
:100760000041F5E710B500EB0113D3F8B04114F0E8
:1007700004041472D3F8B04145D0E4085460D3F8AF
:10078000B04104F002045472D3F8B44104F00F04F1
:100790009472D3F8B441240AD474D3F8B841D47213
:1007A000D3F8B841240A1473D3F8B841240C547315
:1007B000D3F8B841240E947310E0000000640040A8
:1007C00000660040006000400300000400030008D1
:1007D00000010008000003100001FFF7D3F8BC413E
:1007E000D473D3F8BC41240A1474D3F8BC41240C4C
:1007F0005474D3F8BC311B0E937439B1016941F0C4
:100800002001016110BD640D1460B8E7C16841F0BA
:100810002001C16010BD21B1016941F020010161D9
:100820007047C16841F02001C16070470246002056
:1008300029B1012902D1106900F003007047D06886
:10084000FAE700234FF6FF7221B1012917D00229E0
:1008500024D03AE0016821F0020141F00101016079
:1008600000E0521E416801F00301012901D0002A75
:10087000F7D1406800F00300012823D124E001688B
:1008800021F00301016000E0521E4168890701D098
:10089000002AF9D14068800714D115E0016821F0E1
:1008A000010141F00201016000E0521E416801F0C7
:1008B0000301022901D0002AF7D1406800F00300AB
:1008C000022801D0002300E0012318467047026887
:1008D000002122F0010242F002020260406800F0B2
:1008E0000300022800D101210846704702684FF634
:1008F000FF71002322F00202026000E0491E4268FC
:10090000920701D50029F9D14068800700D401235E
:10091000184670478069C0F3021000017047806973
:10092000000E70478069C0F307407047002A426993
:1009300001D00A4300E08A4342617047024600202A
:1009400011F4700F03D0926904E001207047CB01CD
:1009500004D552680A401103F7D170470B0101D545
:100960009268F7E78B0101D5D268F3E71269F1E7E6
:10097000534A914202D1002181617047C1F31302B1
:100980008B0101D5C26070474B0101D502617047F0
:10099000090101D58260704742607047024600201D
:1009A00053690B424AD0B1F5807F3BD013DC082954
:1009B0002ED007DC012926D0022927D004293DD1D9
:1009C000D0682BE0102925D0202926D0402935D108
:1009D0001069102130E0B1F5004F2BD00BDCB1F5E0
:1009E000007F22D0B1F5806F22D0B1F5006F25D104
:1009F0009069702120E0B1F5803F11D0B1F5003F42
:100A00001CD15068E5E790682E4915E0D06802E0F7
:100A1000D068DEE7106903210EE0106908210BE0C1
:100A20005068FBE79069012106E09069022103E02C
:100A3000906900E05068042100F03BB8704730B581
:100A4000082310240422B1F5007F1DD010DC2029DA
:100A500029D007DC012921D0042922D0082900D17E
:100A6000C46030BD402920D0B1F5807FF9D10BE0C2
:100A70000025B1F5004F06D008DCB1F5806F03D03A
:100A8000B1F5006FEDD18561426030BDB1F5803FB9
:100A90000DD0B1F5003FF8D1446030BD0949816007
:100AA00030BDC36030BD036130BD046130BD436003
:100AB00030BD024600200A4200D0012070470000ED
:100AC0007000F030010101002DE9F043016821F0D0
:100AD000010101600021016041608160C16001612C
:100AE00021214161B849B84A3D251039904202D1CF
:100AF0008D60BDE8F083B44A4FF4746618329042BA
:100B000001D18E60F5E7B04A4FF47417303290424D
:100B100001D18F60EDE7AC4A4FF0746C48329042DF
:100B200002D1C1F808C0E4E7A74BA84A6033984255
:100B300001D1CA60DDE7A44CA54B7834A04201D1B5
:100B4000CB60D6E7DFF88082A24C08F190084045E0
:100B500001D1CC60CDE7DFF870824FF03D5908F14C
:100B6000A808404502D1C1F80C90C2E79A49DFF8C5
:100B700068820839404501D10D60BAE7964D1835B5
:100B8000A84201D10E60B4E7934D3035A84201D19F
:100B90000F60AEE7904D4835A84202D1C1F800C0C1
:100BA000A7E78D4D8C496035091FA84201D10A6025
:100BB0009FE7894A7832904201D10B6099E7864AD3
:100BC0009032904201D10C6093E7834AA832904260
:100BD0008FD1C1F800908CE730B503687F4ACC68AC
:100BE00013400A682243D1E905452C432243CC69CE
:100BF00022430C6A22434C6A22438C6A22434C6B88
:100C000022438C6B22431A430260426922F007039D
:100C1000D1E90B2422431A4342610A6942604A68BF
:100C200082608968C16030BD0021016041608160DF
:100C3000C160016141618161C161016241628162A2
:100C4000C16201634163816370470029016802D07A
:100C500041F0010101E021F001010160704700292C
:100C6000016802D041F4004101E021F4004101603B
:100C700070470029016802D041F0200101E021F015
:100C800020010160704741607047406880B2704742
:100C9000002A026802D042F4002201E022F400227D
:100CA0000260016170470029016802D041F480218F
:100CB00001E021F48021016070470AB101617047B1
:100CC000C1607047014600200968090300D5012072
:100CD0007047014600200968C90700D0012070470D
:100CE000406900F03800704702463B4B00209A42B2
:100CF00002D2354A103A01E0374A103A8B0001D54A
:100D0000526800E01268364B1A400A4200D00120B7
:100D10007047314A904202D22B48103801E02E48E9
:100D200010382F4A8B0001EA020101D5C1607047DB
:100D3000816070470B0607D5436912B143F0800309
:100D400001E023F080034361802908D0002A026873
:100D500001F01E0101D00A4300E08A43026070479F
:100D600030B51D4A0024904202D2174A103A01E0E1
:100D7000194A103A1B4B194205D01E2303EAD1250C
:100D800003682B4002E0406900F08003880001D531
:100D9000506800E01068124A1040084201D003B1C8
:100DA0000124204630BD0C4A904202D20648103839
:100DB00001E0094810380A4A8B0001EA020101D516
:100DC000C160704781607047106002403D000020A4
:100DD000400F002000003D20106402403F801CF0C6
:100DE0007D0F7D0F3C0F3C0F774910B5884206D12F
:100DF0000121084600F0B7FA002101205BE07349A9
:100E0000884206D10121022000F0ADFA0021022023
:100E100051E06F49884206D10121042000F0A3FA75
:100E20000021042047E06B49884206D101210820B7
:100E300000F099FA002108203DE06749884206D178
:100E40000121102000F08FFA0021102033E06349C7
:100E5000884206D10121202000F085FA00212020BF
:100E600029E05F49884206D10121402000F07BFA49
:100E7000002140201FE05B49884206D101218020EB
:100E800000F071FA0021802015E05749884202D114
:100E9000012184150AE05549884202D101214415F7
:100EA00004E0534988420AD101210415204600F08C
:100EB0005AFA00212046BDE8104000F054BA10BD97
:100EC000F0B5002201274FF0030C0B6807FA02F57A
:100ED0002B40AB422CD1066853000CFA03F4A64316
:100EE00006600E79D0F800E09E4046EA0E060660E5
:100EF0000E79012E01D0022E12D18668A64386609B
:100F00004E79D0F808E09E4046EA0E0686604668B4
:100F1000AE43466045688E799640B6B2354345602B
:100F2000C568A543C560CC799C40C3681C43C460B8
:100F3000521C102AC9D3F0BD4FF6FF710160002189
:100F4000017141718171C171704708B541F48032FE
:100F50000092C261C1610099C161C169C06900901C
:100F600008BD0246002012690A4200D001207047E5
:100F7000006980B270470246002052690A4200D0E0
:100F800001207047406980B27047018370474183F8
:100F900070470AB1018370474183704741617047D0
:100FA00042694A40426170474B07DB0E9A40C908CC
:100FB00010B500EB8100016A0F249C40A14301623F
:100FC000016A1143016210BD0000024000040240AA
:100FD00000080240000C02400010024000140240D1
:100FE00000180240001C0240002002400024024081
:100FF000002802400D49086070470C49486070475E
:101000000A498860704709494AF6AA200860704773
:1010100006494CF6CC4008607047044A014600205F
:10102000D2680A4200D00120704700000030004022
:10103000F848016841F001010160F64A00210832D8
:1010400011600268F44B1A400260031DF34A1A60F3
:10105000F04BF34A84331A60F04A103A1B1D1A60B1
:10106000026822F480220260EA480C300160181DF8
:1010700001607047E7490022891C0A7008707047B8
:1010800002460020510901290CD002290CD0E14967
:101090007431096802F01F02012393400B4200D013
:1010A00001207047DB49F4E7DA497031F1E718B500
:1010B00000204FF4A04400903120FFF7E1FF009999
:1010C000491C0091A14201D00028F5D03120FFF742
:1010D000D7FF002800D0012018BDCE4A116821F0AA
:1010E000F80141EAC00010607047CE4908607047BF
:1010F000C849002270310A700A70012802D0042801
:1011000001D1052008707047C7490860704741EA5F
:1011100082115A0810B5C54B029C03EB02421143E1
:10112000014341EA0460BB49091D086010BDBD4987
:1011300008667047800140EA0170B6498431086052
:101140007047B84988667047800140EA0160B1493C
:1011500040EA0270883108607047B24908677047FA
:10116000B049C8647047AB4B08331A68084322F093
:10117000EC62104318607047A64B08331A680843A6
:1011800022F07842104318607047A24A0832116872
:1011900021F003010143116070479E480830006848
:1011A00000F00C0070479B4A0832116821F0F001F2
:1011B000014311607047974A0832116821F4E051E9
:1011C000014311607047934A0832116821F460416D
:1011D00041EAC0001060704770B58E4B0833196843
:1011E000934C11F00C0104D06610042903D0082997
:1011F00003D004601BE0066019E0864A121D1168E6
:10120000C1F38055116801F03F0115B1B6FBF1F152
:1012100001E0B4FBF1F114681268C4F3881461436F
:10122000C2F30142521C5200B1FBF2F10160196895
:101230000F2202EA11117F4A545C0168E1404160CB
:101240001C68072505EA9424145D21FA04F48460DF
:101250001B6805EA5333D25CD140C16070BDC0F356
:101260000121032908D16B4B08331968724A21F414
:10127000F81102400A431A60664970310A68C0F3E7
:101280000B0002430A6070476749443908607047A1
:1012900065494039086070476249C1F85C01704790
:1012A0005C4A8C321168401E21F01F01014311601D
:1012B0007047584A8C3211686FF0FF0321F4F851DF
:1012C00003EB0020084310607047524A8C321168CB
:1012D00021F440110143116070474E4A8C3211686D
:1012E00021F440010143116070474A4A8C32116871
:1012F00021F440310143116070475049C1F8E001C9
:101300007047444A30320029116801D0014300E09F
:101310008143116070473F4A34320029116801D07F
:10132000014300E08143116070473A4A3832002996
:10133000116801D0014300E0814311607047354AD4
:1013400040320029116801D0014300E0814311605F
:101350007047304A44320029116801D0014300E04F
:101360008143116070472B4A10320029116801D067
:10137000014300E0814311607047264A143200297E
:10138000116801D0014300E0814311607047214A98
:1013900018320029116801D0014300E08143116037
:1013A00070471C4A20320029116801D0014300E037
:1013B000814311607047174A24320029116801D017
:1013C000014300E0814311607047124A5032002906
:1013D000116801D0014300E08143116070470D4A5C
:1013E00054320029116801D0014300E081431160AB
:1013F0007047084A58320029116801D0014300E0C3
:10140000814311607047034A60320029116817D088
:10141000014316E000380240FFFFF6EA10300024D6
:101420000030002000004742800E47420000FFFFCE
:101430000024F40000000020FFFCFF0F00104742D2
:10144000814311607047194A0029116801D0014396
:1014500000E081431160704714490C31012808688D
:1014600003D020F008000860704740F00800FAE759
:101470000E4A573A0029117801D0014300E0814318
:101480001170704709481030016841F080710160A7
:1014900070470146054A0020583A12680A4200D0B7
:1014A000012070470149563908707047643802407E
:1014B000C14910B5884202D10121841424E0BF49FA
:1014C000884202D10121041404E0BD4988420AD1B6
:1014D0000121C4132046FFF764FF2046BDE81040F9
:1014E0000021FFF75EBFB749884202D101214414B1
:1014F0000AE0B549884202D101210C0504E0B34954
:1015000088420AD101214C052046FFF754FF2046AE
:10151000BDE810400021FFF74EBF10BD30B5028876
:101520004C8802F441530A88CD8822438C882C438E
:1015300022430C8922434C8922438C892243CC8943
:1015400022431A430280828B22F400628283098A3A
:10155000018230BDF0B502220023858B01244FF2B9
:101560004006354085830284868B8D68022D3DD0F0
:101570008A8802B10224964A13681B0203D51368B5
:1015800023F400031360924A7C3213681268C3F399
:1015900088138F4FC2F302723F1F3D683F6805F00A
:1015A0003F057F0201D58B4F00E08B4FB7FBF5F570
:1015B0005D43B5FBF2F2CB88B3F5007F2BD063011E
:1015C000B2FBF3F202EB82028B685200B2FBF3F241
:1015D000521D92B20A23B2FBF3F202F00103D21AB7
:1015E0004FF6FF74C2F34F0204EA0323941EFE2C4D
:1015F00001D302220023CC881A43144304840A88AE
:101600004B881A438B8889890B431A43324342F42F
:1016100000618183F0BD120AD4E70021018041807E
:101620008180C180018141818181C1810721018245
:1016300070470021018041808180C1800222826048
:10164000818170470029018802D041F0400101E00A
:1016500021F04001018070470029818B02D041F4C4
:10166000806101E021F4806181837047028822F467
:101670000062028002880A4302807047B1F5804F01
:10168000018803D021F480410180704741F48041FA
:10169000FAE7A1F57E420188FF3A02D041F4807159
:1016A00001E021F48071018070470029818802D017
:1016B00041F0040101E021F004018180704700291C
:1016C000818802D041F0100101E021F010018180F9
:1016D000704730B5828B00234FF240042240828352
:1016E00002220284848B0A884FF48075B2F5007F51
:1016F00000D002B92B464A888D8889892A4319432C
:101700000A43224342F40061818330BD80897047DF
:10171000818170470029018802D041F4005101E025
:1017200021F4005101807047018841F4805101800B
:101730007047012901D0008B7047808A7047008A6A
:101740007047002A828801D00A4300E08A438280E1
:101750007047090901238B40002A828899B201D081
:101760000A4300E08A4382807047024600201289C3
:101770000A4200D001207047C9430181704730B54B
:1017800001F00F030125024605FA03F40020A3B27D
:10179000090905FA01F49188A4B2128921401A427C
:1017A00002D0002900D0012030BD01F00F0201213C
:1017B0009140C9430181704700300140003800402A
:1017C000003C004000340140005001400054014002
:1017D0000838024000127A000024F400FE4910B5D7
:1017E000884206D101210846FFF7E5FD00210120CE
:1017F0005BE0B0F1804F09D0F84988420DD101215A
:101800000220FFF7CEFD0021022070E001210846F2
:10181000FFF7C7FD0021012069E0F149884206D1A8
:1018200001210420FFF7BDFD002104205FE0ED4908
:10183000884206D101210820FFF7B3FD00210820CE
:1018400055E0E949884206D101211020FFF7A9FDA2
:10185000002110204BE0E549884206D101212020DB
:10186000FFF79FFD0021202041E0E149884206D199
:1018700001210220FFF79FFD0021022015E0DD4934
:10188000884202D101210C040AE0DB49884202D1DE
:1018900001214C0404E0D94988420AD101218C0479
:1018A0002046FFF788FD00212046BDE81040FFF7E5
:1018B00082BDD349884206D101214020FFF771FD46
:1018C0000021402013E0CF49884206D10121802029
:1018D000FFF767FD0021802009E0CB4988420AD14B
:1018E000841501212046FFF75CFD00212046BDE85C
:1018F0001040FFF756BD10BD30B50288B64CBC4D48
:10190000A0420DD0A8420BD0B0F1804F08D0B34B0D
:10191000984205D0B24B984202D0B24B984203D1C4
:1019200022F070034A881A43AF4B984206D0AF4B5F
:10193000984203D022F440730A891A4302804A680D
:10194000C2620A880285A04201D0A84201D1897AE8
:1019500001860121818230BD4FF0FF3141600021BD
:1019600001800181418081727047018582827047C8
:10197000028822F070020A43028070474162704779
:10198000C1627047406A7047008D70470029018826
:1019900002D041F0020101E021F002010180704714
:1019A0000029018802D041F0040101E021F0040186
:1019B000018070470029018802D041F0800101E0D8
:1019C00021F0800101807047028822F00802028025
:1019D00002880A4302807047028822F44072028023
:1019E00002880A43028070470029018802D041F032
:1019F000010101E021F001010180704730B5028C46
:101A000022F001020284028C8388048B22F00202FD
:101A100024F073050C882C438D8915434A882A438A
:101A20006D4DA84202D0724DA8420DD122F008059A
:101A3000CA8923F440732A4322F004058A882A4382
:101A40000D8A1D434B8A2B4383800483896841633D
:101A5000028430BD70B5028C22F010020284028C28
:101A60008388048B0D8824F4E6464FF6FF7404EA5D
:101A7000052535438E8922F0200204EA0616164316
:101A80004A8804EA02123243534EB04202D0584E02
:101A9000B04215D122F08006CA8923F4406304EADB
:101AA0000212324322F040068A8804EA02123243CC
:101AB0000E8A04EA86061E434B8A04EA83033343F4
:101AC0008380058389688163028470BD70B5028C50
:101AD00022F480720284028C8388848B0D8824F027
:101AE000730425438E894FF6FF7422F4007204EAD2
:101AF000062616434A8804EA02223243364EB04292
:101B000002D03B4EB04215D122F40066CA8923F4BC
:101B1000405304EA0222324322F480668A8804EAAF
:101B2000022232430E8A04EA06161E434B8A04EA56
:101B300003133343838085838968C163028470BD46
:101B400070B5028C22F480520284058C8288838BCB
:101B50000C8823F4E6464FF6FF7303EA042434436B
:101B600025F400568D8903EA053535434E8803EA8E
:101B700006362E43184DA84202D01D4DA84205D16D
:101B800022F480450A8A03EA82122A4382808483EF
:101B900089680164068470BD0021018041808180D4
:101BA00081608181C18101824182704730B5012409
:101BB000058C00F118038C40A543058431B3082936
:101BC0002CD0091FC1F34E001844016848F6FF737A
:101BD0001940016001681AE0000001400004004063
:101BE00000080040000C00400010004000140040BD
:101BF0000004014000400140004401400048014011
:101C000000180040001C00400020004006E04FF695
:101C1000FF7303EA02221143016030BD03EB510060
:101C200001684FF68F73194001600168F3E7416363
:101C3000704781637047C163704701647047028BCE
:101C400022F070020A4302837047028B4FF6FF7343
:101C500022F4E04203EA0121114301837047828BA1
:101C600022F070020A4382837047828B4FF6FF7323
:101C700022F4E04203EA0121114381837047028B81
:101C800022F008020A4302837047028B4FF6FF736B
:101C900022F4006203EA0121114301837047828B21
:101CA00022F008020A4382837047828B4FF6FF734B
:101CB00022F4006203EA0121114381837047028B01
:101CC00022F004020A4302837047028B4FF6FF732F
:101CD00022F4806203EA0121114301837047828B61
:101CE00022F004020A4382837047828B4FF6FF730F
:101CF00022F4806203EA0121114381837047028B41
:101D000022F080020A4302837047028B4FF6FF7372
:101D1000C2F30E0203EA0121114301837047828B53
:101D200022F080020A4382837047828B4FF6FF7352
:101D3000C2F30E0203EA0121114381837047028C32
:101D400022F002020A4302847047028C22F0080249
:101D50000A4302847047028C4FF6FF7322F0200280
:101D600003EA0111114301847047028C4FF6FF739F
:101D700022F0800203EA0111114301847047028CB2
:101D80004FF6FF7322F4007203EA0121114301842C
:101D90007047028C4FF6FF7322F4006203EA0121C0
:101DA000114301847047028C4FF6FF7322F40052F6
:101DB00003EA013111430184704710B50123048CFB
:101DC0008B409C430484038C8A401343038410BDDE
:101DD00010B50423048C8B409C430484038C8A40FC
:101DE0001343038410BD828B22F440628283828B72
:101DF0004FF6FF7303EA01210A4382837047828B07
:101E000022F00C028283828B0A4382837047028B0A
:101E100022F440620283028B4FF6FF7303EA012132
:101E20000A4302837047F0B5048C24F01004048444
:101E3000078B068C4FF6FF7404EA011527F47347ED
:101E400004EA0331394304EA02220A4326F0A001DE
:101E5000294341F0100102830184F0BD028B22F07E
:101E60000C020283028B0A43028370472DE9F04182
:101E70000C460E884988A288238905460EB3042E95
:101E800026D0082E2E8C4FF6FF7028D026F48056D0
:101E90002E84AF8B2E8C00EA022200EA013127F457
:101EA00073473A4300EA0330104326F420420A43C2
:101EB00042F48051A8832984E1882846BDE8F04196
:101EC00091E700F062F9E1882846BDE8F041C5E7F6
:101ED000FFF7A9FFE1882846BDE8F04197E726F41F
:101EE00080762E84AF8B2E8C00EA012100EA03104D
:101EF000104327F0F307384326F420620A4342F4E4
:101F00008071A8832984E1882846BDE8F04176E7FE
:101F100000210180418001228280C18001817047BF
:101F20002DE9F0410C46002649880746012501B9F4
:101F30000226A288012A00D10225208823890028B0
:101F4000384610D0FFF76FFFE1883846FFF75FFF94
:101F500023892A463146384600F017F9E188384689
:101F6000BDE8F0417AE700F010F9E1883846FFF764
:101F700075FF23892A4631463846FFF754FFE1882A
:101F80003846BDE8F04142E7406B7047806B7047D0
:101F9000C06B7047006C704710B50A884B88CC88BE
:101FA0001A438B8823431A430B891A434B89898927
:101FB0001A430A43A0F8442010BD0021018041804B
:101FC0008180C1800181418181817047002930F881
:101FD000441F02D041F4004101E0C1F30E01018031
:101FE00070470029818802D041F0040101E021F00E
:101FF0000401818070470029818802D041F00101ED
:1020000001E021F0010181807047002A828901D01E
:102010000A4300E08A43828170478182704702460A
:102020000020128A0A4200D001207047C943018271
:10203000704702460020138A92890B4202EA01028D
:1020400002D0002A00D001207047C94301827047A6
:102050001143A0F848107047002A828901D00A4332
:1020600000E08A43828170470029818802D041F0D4
:10207000080101E021F0080181807047018921F009
:10208000070101817047028922F070020A43028130
:10209000704700B50346FFF7F6FF188940F00700C8
:1020A000188100BD70B516460D46602904464FF0F4
:1020B000010231460AD000F068F829462046FFF7B1
:1020C000E2FF208940F00700208170BDFFF7ABFEE2
:1020D000F3E730B504894FF6FF7505EA0323134390
:1020E000E4B20B432343038130BD10B50446FFF730
:1020F000F0FF208940F07700208110BD10B5044624
:10210000FFF7E7FF208940F48040208110BD8288DE
:1021100022F07002828082880A438280704702899E
:1021200022F00702028102890A4302817047028974
:1021300022F08002028102890A430281704770B551
:102140000589048B068C25F007050D434FF6FC41ED
:102150000C4040F201110C434FF6FF7101EA0311EC
:1021600026F022061143314305810483018470BDAA
:102170000029818802D041F0800101E021F0800136
:1021800081807047A0F85010704770B5048C24F01F
:1021900001040484058B048C4FF6FF7606EA0313D2
:1021A000134325F0F3052B4324F00A020A4342F0BF
:1021B00001010383018470BDCD4910B5884206D169
:1021C00001211020FFF7F7F80021102020E0C94975
:1021D000884202D101214C0429E0C749884202D13A
:1021E00001218C0423E0C549884202D10121CC049D
:1021F0001DE0C349884202D101210C0517E0C14905
:10220000884209D101212020FFF7D5F800212020A4
:10221000BDE81040FFF7CFB8BB49884202D1012189
:102220008C0704E0B94988420AD1012144052046BF
:10223000FFF7B7F82046BDE810400021FFF7B1B81E
:1022400010BD7FB50446008A0D46C98820F4405071
:1022500001432182A08941F20C618843A9882A891F
:1022600011436A8902431143A181A08A20F440717D
:10227000A8890843A0826846FEF7AEFF9C488442C6
:1022800002D0A048844201D1039800E00298A189BD
:10229000090400EBC00101EB0010296801D54900D9
:1022A00000E08900B0FBF1F06422B0FBF2F109011B
:1022B0000B096FF018056B4300EB8300A3891D0425
:1022C0004FF0320306D503EBC000B0FBF2F000F094
:1022D000070005E003EB0010B0FBF2F000F00F0088
:1022E000084320817FBD4FF4165101600021818099
:1022F000C18001810C2242818181704710B5028A20
:102300004C8822F470630A8822438C88C9880C4365
:1023100022431A43028210BD002101804180818046
:10232000C18070470029818902D041F4005101E049
:1023300021F4005181817047028B02F47F420283B5
:10234000028B0A43028370470029818902D041F43D
:10235000004101E0C1F30E01818170470029818AAB
:1023600002D041F4006101E021F4006181827047F4
:10237000C1F30801818070478088C0F3080070476E
:10238000028A22F00F020282028A0A430282704706
:102390000029818902D041F0020101E021F002010F
:1023A00081817047828922F40062828182890A4396
:1023B00082817047028A22F020020282028A0A4346
:1023C000028270470029018A02D041F4804101E075
:1023D00021F4804101827047818941F001018181AE
:1023E00070470029818A02D041F0080101E021F004
:1023F000080181827047028BD2B20283028B42EACB
:102400000121018370470029818A02D041F0200117
:1024100001E021F02001818270470029818A02D0E9
:1024200041F0100101E021F0100181827047828AA1
:1024300022F004028282828A0A4382827047002943
:10244000818A02D041F0020101E021F00201818283
:102450007047002A828A01D00A4300E08A438282C0
:10246000704710B5C1F3421301F01F040121A140D0
:10247000012B07D0022B07D01430002A026805D0A8
:102480000A4304E00C30F8E71030F6E78A430260B4
:1024900010BD0246002012880A4200D00120704779
:1024A000C9430180704770B501F01F050126002463
:1024B000C1F3421306FA05F2012B0FD0022B0FD005
:1024C000838A4FEA11210088134206FA01F600EAD6
:1024D000060001D000B10124204670BD8389F0E7D9
:1024E000038AEEE70A0A01219140C943018070473F
:1024F000001001400044004000480040004C0040F3
:10250000005000400014014000780040007C004072
:10251000F94908707047F8490028086802D040F46B
:10252000807001E020F4807008607047F249002854
:10253000086802D040F4007001E020F400700860E8
:102540007047ED490028086802D040F4806001E03F
:1025500020F4806008607047E748016841F400613A
:1025600001607047E448016841F4805101607047A0
:10257000E14810300068002805DADF48DF49001D17
:102580000160DF4901607047DB481030016841F0AD
:10259000004101607047D84909200C310A68D20314
:1025A00001D5012070470A68D20601D50620704780
:1025B0000A68D20501D5022070470A6812F0EF0FB1
:1025C00001D00720704709688907FBD508207047AC
:1025D00008B509208DF80000FFF7DDFF8DF8000039
:1025E0009DF800000128F7D09DF8000008BD70B5E7
:1025F0000646002529B1012928D0022929D04FF407
:102600004075FFF7E5FF09281FD1BB4C1034206847
:1026100020F440702060206828432060206820F06B
:10262000F8002060206846F002010843206020681E
:1026300040F480302060FFF7CBFF216821F00201D9
:102640002160216821F0F801216070BD4FF4807590
:10265000D7E74FF40075D4E730B504460025FFF7FF
:10266000B7FF2CB1012C1DD0022C1ED04FF44075A9
:10267000092816D1A04C1034206820F44070206046
:10268000206828432060206840F004002060206813
:1026900040F480302060FFF79BFF216821F00401A7
:1026A000216030BD4FF48075E2E74FF40075DFE73D
:1026B00030B504460025FFF78BFF2CB1012C1DD04F
:1026C000022C1ED04FF44075092816D18A4C1034C4
:1026D000206820F440702060206828432060206833
:1026E00040F004002060206840F480302060FFF754
:1026F0006FFF216821F00401216030BD4FF4807527
:10270000E2E74FF40075DFE730B504460025FFF738
:102710005FFF2CB1012C1DD0022C1ED04FF4407550
:10272000092816D1744C1034206820F440702060C1
:10273000206828432060206840F400402060206822
:1027400040F480302060FFF743FF216821F400410E
:10275000216030BD4FF48075E2E74FF40075DFE78C
:10276000F0B516461F460546FFF732FF092815D17A
:10277000614C1034206820F440702060206840F4E0
:1027800040702060206840F0010020602E606F6083
:10279000FFF71EFF216821F001012160F0BD70B537
:1027A0000D460646FFF714FF092814D1524C103489
:1027B000206820F440702060206840F400702060A1
:1027C000206840F0010020603560FFF701FF2168BC
:1027D00021F00101216070BD70B50D460646FFF77E
:1027E000F7FE092814D1444C1034206820F44070BE
:1027F0002060206840F480702060206840F0010074
:1028000020603580FFF7E4FE216821F0010121609E
:1028100070BD70B50D460646FFF7DAFE092812D1E5
:10282000354C1034206820F440702060206820600F
:10283000206840F0010020603570FFF7C9FE216874
:1028400021F00101216070BD2B4814300068C007E1
:1028500005D029482B49083001602B490160704799
:1028600025481430016841F001010160704730B51E
:102870000D460446FFF7ACFE092807D11E48163066
:1028800001880DB1A14300E02143018030BD30B586
:102890000D460446FFF79CFE092807D116481A305A
:1028A00001880DB1A14300E02143018030BD124AEF
:1028B0001732117801F07F0108431070704730B56E
:1028C0000D460446FFF784FE092807D10A4A16324E
:1028D00010880DB1204300E0A043108030BD30B51A
:1028E0000D460446FFF774FE092811D1024A1A3238
:1028F00010885DB120430AE0003C02402301674597
:10290000AB89EFCD3B2A19087F6E5D4CA043108048
:1029100030BD10B50446FFF75BFE092801D13548EC
:10292000047010BD70B515460C460646FFF750FE04
:10293000092808D12F49491E087800F00F000443E8
:102940002C4334430C7070BD2A49491E0A7822F08A
:1029500010020A700A7802430A7070472549491E1E
:102960000A7822F00C020A700A7802430A70704753
:102970002048401E017841F00201017028E61D4800
:10298000401E0068C0F3471070471A48401C00887A
:1029900070471848401D008870471648401C008842
:1029A00070471448401D008870471249002009787C
:1029B000AA2900D0012070470E48401E007800F080
:1029C0000C0070470B4A521F0029116801D00143C7
:1029D00000E08143116070470146064A0020093A31
:1029E00012680A4200D00120704702490939086084
:1029F00070470000153C024010B501F0DCFE0020DD
:102A000010BD10B502F016F9012801D0012010BD4B
:102A1000002010BD10B500F05FFC18B1BDE81040FB
:102A200001F009BFBDE8104001F001BF3EB504460A
:102A30000D46B0F9080000F042FC02A9CDE9000102
:102A4000208A2B4682B2D4E9001001F0EBFA01286B
:102A500001D000203EBD02983EBD02F0E8B810B59E
:102A600001F00BFB002010BDFA494FF080500860C8
:102A7000BFF34F8FBFF36F8F0020704710B5044630
:102A8000084600F01CFC0146204601F0F8FC00203E
:102A900010BD10B5044600F01FFC0028204602D0EF
:102AA00001F0D9FC01E001F0CAFCBDE8104000F0E3
:102AB0000CBC10B500B9012001F06CFC002010BD69
:102AC00008B5006813460090012905D000220121B5
:102AD000E1A002F0D3FC08BD0122F8E72DE9FC419A
:102AE0004FF000050C0007462E46019500D1012449
:102AF00000F0F2FB009690B101AB22460921384666
:102B000002F0EAFB012812D1019888B1D1494FF0B7
:102B100080500860BFF34F8FBFF36F8F08E0002332
:102B200022460421384602F0D7FB012800D0FF25B9
:102B30002846BDE8FC817CB5002506462C4601955B
:102B400000F0CAFB0094A0B101AB0022082130467E
:102B500002F0C2FB012801D0FF207CBD019888B1A2
:102B6000BC494FF080500860BFF34F8FBFF36F8FA9
:102B700008E000231A460321304602F0ADFB01288D
:102B800000D0FF2528467CBD38B50546002400F05E
:102B9000A3FB08B1822038BD4FF0FF300023009026
:102BA0001A460521284602F097FB012800D0FF2491
:102BB000204638BDFEB500220C4605460192029221
:102BC00000F08AFB4FF0004698B101A8009002ABDC
:102BD00001222146284602F00BFA012811D1019862
:102BE00088B19C49F0080860BFF34F8FBFF36F8F27
:102BF00009E002AB01222146284602F088F90128AB
:102C000001D03046FEBD0298FEBDFEB50026054649
:102C10000F4634460196501C06D002B1144600F00F
:102C20005BFB20B1822015E04FF0FF34F7E723462D
:102C30003946002001AA02F02AF9012804D00CB17B
:102C4000402007E0009606E00198002801DA86207F
:102C500000E0082000909DE8070085E80700FEBD21
:102C6000012000F00BBD38B505004FF000000090CA
:102C70000FD00024481C0ED001B10C4600F02CFBF4
:102C8000B8B16A460021284601F013F8012816D190
:102C900004E0802038BD4FF0FF34EFE7009880B1AA
:102CA0006C494FF080500860BFF34F8FBFF36F8FB8
:102CB00007E02146284600F012FD012801D0FF2040
:102CC00038BD002038BD38B500240546009400F01A
:102CD00003FB90B16946284600F059FE012801D057
:102CE000FF2038BD009888B15A494FF080500860E5
:102CF000BFF34F8FBFF36F8F08E000231A461946CA
:102D0000284600F00CFC012800D0FF24204638BDE6
:102D100010B5044600F0E0FA08B1822010BD20464C
:102D200001F090F8002010BD10B50846012903D02D
:102D3000BDE8104000F0B0BD03220021012000F0EA
:102D40005BFB040004D000231A46194600F0E7FBA1
:102D5000204610BD38B505004FF0000000900FD0A0
:102D60000024481C0ED001B10C4600F0B5FAB8B1F1
:102D70006A460021284600F09CFF012816D104E095
:102D8000802038BD4FF0FF34EFE7009880B1314923
:102D90004FF080500860BFF34F8FBFF36F8F07E095
:102DA0002146284600F09BFC012801D0FF2038BDB9
:102DB000002038BD38B500240546009400F08CFA98
:102DC00090B16946284600F0E2FD012801D0FF20BD
:102DD00038BD009888B11F494FF080500860BFF39C
:102DE0004F8FBFF36F8F08E000231A46194628461D
:102DF00000F095FB012800D0FF24204638BD10B517
:102E0000044600F069FA08B1822010BD204601F0A6
:102E100019F8002010BD2DE9F04105464068C01C9E
:102E200020F00307142002F0B7FD040024D0002690
:102E300028682661C4E90207286802F0ADFD6060D9
:102E4000B0B12868784302F0A7FD206068B1002087
:102E500007E0000004ED00E00000000061680E548F
:102E6000401C29688142F9D806E0606802F0FDFD47
:102E7000204602F0FAFD00242046BDE8F08170B53E
:102E8000002504462E4600F027FA48B11020EFF343
:102E9000118580F31188BFF34F8FBFF36F8F01E06F
:102EA00002F0E0FC0020A26808E0216901448A42A7
:102EB00000D8002163685B5C43B1401C8242F4D8B7
:102EC00000F00AFA58B185F311880AE0626801201F
:102ED0005054E2682068216101FB0206F0E702F02D
:102EE000DDFC304670BD10B5FFF7C9FF002801D0EA
:102EF0000021016010BD78B171B102688A420BD81F
:102F00008A1AC168B2FBF1F301FB132323B9B2FBA8
:102F1000F1F182688A4201D880207047406800221F
:102F200042541046704703C8002200F065BA37B516
:102F300082B005464FF000001400009000D101243B
:102F400000F0CAF94FF0000388B16A4603A9284689
:102F500000F0BFFC012811D1009890B1E1494FF079
:102F600080500860BFF34F8FBFF36F8F09E0224698
:102F700003A9284600F0D3FA012802D0FF2005B0AB
:102F800030BD0020FBE72DE9FF410E004FF00007A8
:102F9000CDE9017605461ED000240397501C1FD0B2
:102FA00002B1144600F098F969464FF01008E8B1F4
:102FB00003AA3046091D00F07CFE012813D00097BB
:102FC0000398E8B1C7494FF080500860BFF34F8FB6
:102FD000BFF36F8F14E0802039463246009011E035
:102FE0004FF0FF34DEE7CDF80080E9E722463046B7
:102FF000091D00F02DFD012808D054B1402000909B
:103000009DE8070085E80700BDE8FF81CDF8008056
:10301000F6E70020F3E73EB504460020009001905B
:10302000029020680090606801900C2002F0B4FCCF
:10303000A1680028086018D00460002204212068DC
:1030400000F0DAF9A16809684860A168096868B108
:103050006846FFF7E0FE0100A06800688160A06894
:10306000006802D102F001FD00203EBD0846F9E7EC
:10307000002801D0806802E7704710B50446FFF7CA
:10308000F7FF002808D000210A4601E04254491CFD
:1030900023685B688B42F9D810BD13B582B0040079
:1030A0000FD00020009000F017F9002860684FF062
:1030B000000314D06A4603A900F00BFC012814D1C8
:1030C00002E0802004B010BD009880B185494FF027
:1030D00080500860BFF34F8FBFF36F8F07E000226F
:1030E00003A900F01CFA012801D0FF20EAE7002024
:1030F000E8E72DE9FF410D000646029522D04FF08A
:1031000000084446CDF80C80501C20D002B1144673
:1031100000F0E2F820270028686869461CD003AA5E
:10312000091D00F0C6FD012814D0CDF800800398D9
:10313000D8B16C494FF080500860BFF34F8FBFF398
:103140006F8F12E0802000902A4601990FE04FF027
:10315000FF34DDE70097EAE72246091D00F078FC1E
:10316000012807D044B1402000909DE8070086E880
:10317000070049E70097F8E70020F5E708B1806805
:10318000B9E68020704702F09ABB10B501F0FDF956
:10319000002010BD10B5044600F09EF8002820461F
:1031A0000BD001F098FA012809D14E4900070860B8
:1031B000BFF34F8FBFF36F8F01E001F053FA002090
:1031C00010BD10B501F096F8002010BD10B501F04B
:1031D00002F8012801D0FF2010BD002010BD10B55D
:1031E00001B9012101F08BF8002010BD812070474A
:1031F000002070473EB50B000546029313D0002413
:10320000501C15D002B114462246184601A900F000
:10321000B8FC01280FD084B140200090DDE90112F4
:1032200085E807003EBD802000901A460199F7E727
:103230004FF0FF34E8E71020EFE70020EDE710B58E
:10324000044600F049F80028204603D0BDE81040AD
:1032500000F0DBBDBDE8104000F0B1BD00F0C1BD25
:1032600010B5044600F038F808B1822010BD2046A1
:1032700000F0E8FD002010BD042000F0FFB910B5FB
:10328000002400F00DFA012800D0FF24204610BDD4
:1032900010B50A4650B10021531C09D002B11146A5
:1032A00000F0DAFA012806D0FF2010BD802010BD02
:1032B0004FF0FF31F4E7002010BD00F080BD014663
:1032C0000020842900D0C81C7047014684200629AC
:1032D00001D8C91E08B27047EFF30580002800D05E
:1032E0000120704704ED00E000F108014FF0FF32CB
:1032F000C0E90112C1600161002101607047002135
:103300000161704742684A6093688B6093685960B6
:10331000916008610168491C0160704730B50C6814
:10332000621C02D000F1080202E0026904E01A46C1
:1033300053681D68A542FAD953684B6099608A604A
:10334000516008610168491C016030BDD0E901325B
:1033500001699A60D0E901235A604A68824201D12A
:1033600082684A60002202610868401E086008689E
:103370007047000070B50D46040025D002F072FAC7
:10338000D4E90F20216802FB0011A1600021A16394
:10339000216861600A46D4E90F01401E00FB01214B
:1033A000E16021464FF0FF3001F8440F487004F10E
:1033B00010008DB1FFF798FF04F12400FFF794FF90
:1033C00002F06CFA012070BD102080F31188BFF369
:1033D0004F8FBFF36F8FFEE721690029F0D001F016
:1033E00050FB0028ECD0FF494FF080500860BFF33D
:1033F0004F8FBFF36F8FE3E72DE9F04117460E467D
:10340000050016D0EEB105FB06F0503002F0C4FA0C
:1034100004000CD004F15000AEB12060C4E90F5696
:1034200020460121FFF7A6FF204684F84C70BDE836
:10343000F081102080F31188BFF34F8FBFF36F8F9F
:10344000FEE70020E1E72460E8E72DE9F0410446CB
:1034500002F008FA94F9455004F1240609E0606A84
:1034600048B1304601F00DFB08B101F0D4FB6D1EF0
:103470006DB2002DF3DC4FF0FF3684F8456002F0AA
:103480000DFA02F0EFF994F9445004F1100709E045
:10349000206948B1384601F0F4FA08B101F0BBFBED
:1034A0006D1E6DB2002DF3DC84F84460BDE8F04180
:1034B00002F0F4B92DE9F041856B17460446002669
:1034C000026C82B1C7B1E0680AF06AFBE168206C67
:1034D000091AE1602268914202D2A168081AE060EC
:1034E000022F16D017E02068A8B9A06801F0F3FBFE
:1034F00006460020A0600EE060680AF051FB216CD7
:10350000606808446060A168884204D320686060F5
:1035100001E005B16D1E6D1CA563304687E72DE9FE
:10352000FF4F83B01F468B4604004FF0000603D0C8
:10353000BBF1000F08D011E0102080F31188BFF319
:103540004F8FBFF36F8FFEE7206C38B1102080F3F0
:103550001188BFF34F8FBFF36F8FFEE7022F0AD1A1
:10356000E06B012807D0102080F31188BFF34F8F44
:10357000BFF36F8FFEE701F05DFBDFF868924FF05D
:10358000000A4FF0805848B9059838B1102080F3F0
:103590001188BFF34F8FBFF36F8FFEE702F062F920
:1035A000A06BE16B884205D3022F03D00598C8B108
:1035B000DEB11EE03A4659462046FFF77BFF616ABE
:1035C00019B104F1240001F05CFA28B1C9F80080B7
:1035D000BFF34F8FBFF36F8F02F060F9012007B088
:1035E000BDE8F08F02F05AF921E0684601F0CBFA0D
:1035F000012602F053F900F07DFE02F033F994F950
:103600004400401C01D184F844A094F94500401CBA
:1036100001D184F845A002F041F905A9684601F0FE
:10362000C3FA30B12046FFF710FF00F0D4FD0020B0
:10363000D5E702F017F9A06BE16B884201D10125B3
:1036400000E0002502F02AF995B104F11000059977
:1036500001F0C3F92046FFF7F8FE00F0BCFD00289A
:103660009CD1C9F80080BFF34F8FBFF36F8F95E7F0
:103670002046FFF7EAFE00F0AEFD8FE710B50246E8
:1036800000210120FFF7B8FE041E07D00021816051
:1036900001600B460A46C160FFF741FF204610BD9E
:1036A00010B5040009D001F0C2FAA168884214D113
:1036B000E068401EE06008D00DE0102080F3118823
:1036C000BFF34F8FBFF36F8FFEE700231A461946F3
:1036D0002046FFF724FF012010BD002010BD2DE97A
:1036E000F3434FF0000583B004002E4609D0206C50
:1036F00078B1102080F31188BFF34F8FBFF36F8F25
:10370000FEE7102080F31188BFF34F8FBFF36F8F58
:10371000FEE701F08FFADFF8CC9000274FF08058D9
:1037200048B9049838B1102080F31188BFF34F8F47
:10373000BFF36F8FFEE702F095F8A06BC8B1401E93
:10374000A063206810B901F069FBA060206950B146
:1037500004F1100001F095F928B1C9F80080BFF319
:103760004F8FBFF36F8F02F099F8012005B0BDE8CD
:10377000F083049808B165B10FE03EB1102080F3EA
:103780001188BFF34F8FBFF36F8FFEE702F086F80B
:1037900060E0684601F0F7F9012502F07FF800F0DB
:1037A000A9FD02F05FF894F94400401C01D184F8AF
:1037B000447094F94500401C01D184F8457002F032
:1037C0006DF804A9684601F0EFF90028204615D0ED
:1037D000FFF73BFE00F0FFFC204600F0AFFB0028A7
:1037E000A9D001E004ED00E09EB302F03BF8606A6E
:1037F00050B3206B0068C0F1070126E000F09EFB8B
:10380000E0B1206838B902F02DF8A06801F01DFA87
:10381000064602F043F804F12400049901F0DDF8B3
:103820002046FFF712FE00F0D6FC002883D1C9F82D
:103830000080BFF34F8FBFF36F8F7CE72046FFF709
:1038400004FE00F0C8FC76E70021A06801F08BFAC6
:103850009CE7FFE7002089E770B50D46040009D01A
:1038600001F0E5F9A16888420CD1E068401CE060F5
:10387000012070BD102080F31188BFF34F8FBFF37C
:103880006F8FFEE729462046FFF729FF0028F0D07A
:10389000E168491CE16070BD10B50C4648B1844236
:1038A0000FD9102080F31188BFF34F8FBFF36F8FB4
:1038B000FEE7102080F31188BFF34F8FBFF36F8FA7
:1038C000FEE702220021FFF797FD002800D0846365
:1038D00010BD2DE9F0471F4690468946040003D0ED
:1038E000B9F1000F08D011E0102080F31188BFF368
:1038F0004F8FBFF36F8FFEE7206C38B1102080F33D
:103900001188BFF34F8FBFF36F8FFEE7022F0AD1ED
:10391000E06B012807D0102080F31188BFF34F8F90
:10392000BFF36F8FFEE701F0DEFF1020EFF311868B
:1039300080F31188BFF34F8FBFF36F8FA06BE16BE4
:10394000884206D3022F04D0002086F31188BDE8F8
:10395000F08794F945503A4649462046FFF7AAFDBC
:10396000681C04D06D1C84F845500120EDE7606AA6
:103970000028FAD004F1240001F083F80028F4D0E4
:10398000B8F1000FF1D00121C8F80010EDE770B5D3
:103990000E46040009D0206C78B1102080F3118805
:1039A000BFF34F8FBFF36F8FFEE7102080F31188B6
:1039B000BFF34F8FBFF36F8FFEE7206848B9A06851
:1039C00038B1102080F31188BFF34F8FBFF36F8F92
:1039D000FEE701F088FF1020EFF3118580F31188D6
:1039E000BFF34F8FBFF36F8FA16BE06B884218D985
:1039F00094F94500491CA163411C04D0401C84F883
:103A0000450001200EE0606A0028FAD004F124008D
:103A100001F037F80028F4D0002EF2D001203060F9
:103A2000EFE7002085F3118870BD30B4026C0B46BF
:103A3000002A0BD0C1681144C1608468A14201D33F
:103A40000168C16030BC18460AF0AAB830BC7047A3
:103A50002DE9F74783B08A4604004FF0000603D0F3
:103A6000BAF1000F08D011E0102080F31188BFF3E5
:103A70004F8FBFF36F8FFEE7206C38B1102080F3BB
:103A80001188BFF34F8FBFF36F8FFEE701F0D2F8BD
:103A9000DFF8C49400274FF0805848B9059838B132
:103AA000102080F31188BFF34F8FBFF36F8FFEE7B5
:103AB00001F0D8FEA56BBDB151462046FFF7B5FF1A
:103AC0006D1EA563206950B104F1100000F0D9FF0C
:103AD00028B1C9F80080BFF34F8FBFF36F8F01F09B
:103AE000DDFE012006B032E7059808B11EB106E000
:103AF00001F0D4FE27E0684601F045F8012601F008
:103B0000CDFE00F0F7FB01F0ADFE94F94400401C3F
:103B100001D184F8447094F94500401C01D184F827
:103B2000457001F0BBFE05A9684601F03DF800288C
:103B300020460AD0FFF789FC00F04DFB204600F03C
:103B4000FDF90028B4D00020CCE700F0F7F990B1DF
:103B500004F12400059900F040FF2046FFF775FCB2
:103B600000F039FB0028A3D1C9F80080BFF34F8FC4
:103B7000BFF36F8F9CE72046FFF767FC00F02BFB3D
:103B800096E72DE9F74382B0894604004FF000051F
:103B900003D0B9F1000F08D011E0102080F3118894
:103BA000BFF34F8FBFF36F8FFEE7206C38B110204B
:103BB00080F31188BFF34F8FBFF36F8FFEE701F0E3
:103BC00039F8DFF8948300264FF0805748B90498FD
:103BD00038B1102080F31188BFF34F8FBFF36F8F80
:103BE000FEE701F03FFEA06BB0B149462046E56814
:103BF000FFF71BFFE560606A50B104F1240000F09C
:103C000040FF28B1C8F80070BFF34F8FBFF36F8F2C
:103C100001F044FE0120A9E5049808B11DB106E0B9
:103C200001F03CFE27E0684600F0ADFF012501F001
:103C300035FE00F05FFB01F015FE94F94400401CD6
:103C400001D184F8446094F94500401C01D184F806
:103C5000456001F023FE04A9684600F0A5FF002896
:103C600020460AD0FFF7F1FB00F0B5FA204600F03D
:103C700065F90028B5D0002078E500F05FF990B133
:103C800004F12400049900F0A8FE2046FFF7DDFBB4
:103C900000F0A1FA0028A4D1C8F80070BFF34F8F3C
:103CA000BFF36F8F9DE72046FFF7CFFB00F093FA3D
:103CB00097E72DE9F04790468946040003D0B9F113
:103CC000000F08D011E0102080F31188BFF34F8F50
:103CD000BFF36F8FFEE7206C38B1102080F311889E
:103CE000BFF34F8FBFF36F8FFEE701F0FCFD102095
:103CF000EFF3118780F31188BFF34F8FBFF36F8FFE
:103D0000A66BF6B194F9445049462046FFF78DFE64
:103D1000761EA663681C04D06D1C84F844500120F4
:103D200010E020690028FAD004F1100000F0A9FE8C
:103D30000028F4D0B8F1000FF1D00121C8F800102C
:103D4000EDE7002087F3118801E62DE9F0410E46EA
:103D500004001AD00EB3206C48B301F0C4FD10204B
:103D6000EFF3118580F31188BFF34F8FBFF36F8F8F
:103D7000A06B30B131462046E768FFF756FE0120C0
:103D8000E76085F31188BDE8F081102080F3118889
:103D9000BFF34F8FBFF36F8FFEE7006C38B1102079
:103DA00080F31188BFF34F8FBFF36F8FFEE71020B2
:103DB00080F31188BFF34F8FBFF36F8FFEE710B50D
:103DC000040006D001F04EFDA46B01F067FD204613
:103DD00010BD102080F31188BFF34F8FBFF36F8F9A
:103DE000FEE710B5040008D001F03CFDD4E90E1048
:103DF000441A01F053FD204610BD102080F31188B5
:103E0000BFF34F8FBFF36F8FFEE708B1806B704732
:103E1000102080F31188BFF34F8FBFF36F8FFEE741
:103E20004E4A002102EBC1035B68834206D10020A9
:103E300042F8310002EBC10148607047491C082973
:103E4000F0D3704710B5040006D0FFF7E9FF204615
:103E5000BDE8104001F009BE102080F31188BFF3C7
:103E60004F8FBFF36F8FFEE7806C704781647047A0
:103E700090F84C00704718B1806B48B10020704733
:103E8000102080F31188BFF34F8FBFF36F8FFEE7D1
:103E90000120704728B1816BC06B814209D101209C
:103EA0007047102080F31188BFF34F8FBFF36F8FDF
:103EB000FEE70020704710B5284B002253F832402F
:103EC0001CB1521C082AF9D310BD43F8321003EB81
:103ED000C201486010BD10B50024204A214602EB03
:103EE000C1035B68834202D152F8314002E0491CB1
:103EF0000829F4D3204610BD70B515460E46044679
:103F000001F0B0FC94F944100020491C01D184F860
:103F1000440094F94510491C01D184F8450001F092
:103F2000BDFCA06B28B92A46314604F1240000F0FC
:103F30008EFD2046BDE87040FFF787BA10B50446F5
:103F400001F090FCA06B20B1002401F0A7FC2046FA
:103F500010BD0124F9E7000004ED00E0D0030020CB
:103F60002DE9F041054601F07DFCFB4EB068401C98
:103F7000B0603068F94F10B1706940B32DE0356022
:103F8000B068012829D1002404EB840007EB8000ED
:103F9000FFF7AAF9641C072CF6D3F0488C30FFF722
:103FA000A3F9EE48A030FFF79FF9EC48B430FFF7D3
:103FB0009BF9EA48C830FFF797F9E848DC30FFF78B
:103FC00093F9E6488C3070631430B06305E03068D4
:103FD000E96AC06A884200D83560706A0121401CD5
:103FE00070626864E86A326981401143316100EBB4
:103FF000800007EB8000291DFFF784F901F04EFCDB
:10400000706900280CD03068E96AC06A884207D21B
:10401000D3494FF080500860BFF34F8FBFF36F8FCD
:10402000BDE8F0812DE9FF5F8346DDE90E87994603
:1040300016468A46900001F0AFFC05001AD05C20BD
:1040400001F0AAFC040012D025630021CDE9024151
:10405000CDE900874B4632465146584601F0AFF84D
:104060002046FFF77DFF012004B0BDE8F09F284601
:1040700001F0FBFC4FF0FF30F6E770B5044601F0AD
:10408000F1FBB54D04B92C68201DFFF75FF958B955
:10409000E06AB24A00EB800152F8211021B90121F7
:1040A0008140286988432861A06A18B104F118008A
:1040B000FFF74CF9686A401C68622868844208D19E
:1040C000A648211DC830FFF71DF96868401C6860CC
:1040D00007E0A868401EA860204601F0D3F801F070
:1040E000C4F801F0DBFB6869002814D0286884421A
:1040F00011D1286B38B1102080F31188BFF34F8F96
:10410000BFF36F8FFEE796494FF080500860BFF312
:104110004F8FBFF36F8F70BD2DE9F0418E4F00269A
:10412000386B38B1B869401CB861F86900B1012634
:10413000304675E7FD686D1CFD6013D1786B006833
:1041400038B1102080F31188BFF34F8FBFF36F8F0A
:10415000FEE7786BB96B7963B863386A401C3862E4
:1041600001F083F8B86ADFF8F481854209D3786BEF
:10417000006880B1786BC068C468606885420DD201
:10418000B8623868C06A00EB800158F82100012845
:10419000CBD90126C9E74FF0FF30F1E7201DFFF72B
:1041A000D5F8A06A18B104F11800FFF7CFF8E06A5B
:1041B00001213A6981401143396100EB800108EB2C
:1041C0008100211DFFF79EF8E06A3968C96A8842BC
:1041D000CDD30126CBE72DE9F0475F4D00242746DC
:1041E000286B38B101F03EFB286B401E2863286B1A
:1041F00040B147E0102080F31188BFF34F8FBFF329
:104200006F8FFEE7A8685549B4310126D0B3DFF8B7
:104210004C918846D8F80010E9B1D8F80C00C46871
:1042200004F11800FFF792F8201DFFF78FF8E06AFD
:104230002A6906FA00F11143296100EB800109EBBC
:104240008100211DFFF75EF8E06A2968C96A88428B
:10425000E0D3EE61DEE70CB101F007F8AC693CB1E8
:10426000FFF75AFF00B1EE61641EF9D10020A8618A
:10427000E86938B13A49012738070860BFF34F8F22
:10428000BFF36F8F01F00AFB3846BDE8F0872DE9D8
:10429000F041314E0F460446F5683068001DFFF7C7
:1042A00055F838B9306890F82C10012088403169F1
:1042B00081433161601C08D13FB13168BDE8F041F4
:1042C0002648DC30091DFFF71DB830682C44AC428D
:1042D0004460316805D2B06BBDE8F041091DFFF7BD
:1042E0001DB8706B091DFFF719F8B06A844200D23F
:1042F000B46295E61848016B491C0163704770B5BC
:104300000E4605004FF000030BD096B1124A106B19
:10431000B8B1102080F31188BFF34F8FBFF36F8FB8
:10432000FEE7102080F31188BFF34F8FBFF36F8F2C
:10433000FEE7102080F31188BFF34F8FBFF36F8F1C
:10434000FEE7FFF7D7FFD2682C68A119944209D97C
:104350008C4209D80BE0000010000020100400205F
:1043600004ED00E08C4201D8914200D9012329607C
:104370001BB1881A0021FFF78AFFFFF72CFF0028E6
:1043800007D1FA494FF080500860BFF34F8FBFF359
:104390006F8F70BD10B5020014D0F548006B38B1B6
:1043A000102080F31188BFF34F8FBFF36F8FFEE7AC
:1043B000FFF7A0FF00211046FFF769FFFFF70BFF93
:1043C000002807D1E9494FF080500860BFF34F8FB4
:1043D000BFF36F8F10BD2DE9F041040005D0E44E0E
:1043E0003068844209D100201AE6102080F3118839
:1043F000BFF34F8FBFF36F8FFEE701F033FA6569AC
:10440000776BB66B01F04AFABD4201D0B54201D1DB
:10441000022005E6D748854208D1A06A0028F7D1D6
:1044200094F858000128F3D00320F9E5D148143856
:10443000854202D00DB10120F2E50420F0E510B56F
:10444000044601F00FFA0CB9C9480468E46A01F0A7
:1044500025FA204610BD10B5044601F044FA10209C
:10446000EFF3118180F31188BFF34F8FBFF36F8F8C
:104470000CB9BF480468E06A81F3118810BD2DE9CA
:10448000F04100260D460446072907D3102080F38B
:104490001188BFF34F8FBFF36F8FFEE701F0E2F992
:1044A000B34F04B93C68E06CA84240D039688542FB
:1044B00006D98C4207D03968C96AA94202D902E0FC
:1044C0008C4200D10126E16A8846884200D1E5622B
:1044D000E564A069002802DBC5F10700A061A54DD5
:1044E00008EB8800DC3D616905EB8000814215D155
:1044F000201DFEF72BFF012120B93A6901FA08F0CF
:1045000082433A61E06A3A6981401143396100EBC4
:10451000800005EB8000211DFEF7F4FE3EB19349BB
:104520004FF080500860BFF34F8FBFF36F8FBDE82F
:10453000F04101F0B3B98E4A106B10B10120D06187
:1045400070470020D06110698A49B0FA80F0C0F14C
:104550001F0000EB8000DC3951F820306BB101EB1B
:10456000800000F10803416849684160994201D127
:1045700049684160C86810607047102080F3118856
:10458000BFF34F8FBFF36F8FFEE770B5044601F0A6
:1045900069F9774D04B92C68201DFEF7D7FE60B984
:1045A000E06A744A00EB8001DC3A52F8211021B92C
:1045B00001218140286988432861A06A18B104F16B
:1045C0001800FEF7C3FE211D6A48FEF79BFE94F813
:1045D00058000026012801D184F8586001F05EF9E6
:1045E000686928B101F03EF900F03FFE01F056F98C
:1045F0002868844213D1686990B1286B38B11020C3
:1046000080F31188BFF34F8FBFF36F8FFEE75749D9
:104610004FF080500860BFF34F8FBFF36F8F70BDB6
:1046200054480068A968884201D12E6070BDBDE879
:10463000704080E7002150B14E4B42699A420FD141
:10464000806AA3F1280290420AD040B108E010200D
:1046500080F31188BFF34F8FBFF36F8FFEE7012107
:104660000846704770B504002CD0414D286884423C
:1046700030D001F0F7F82046FFF7DCFFF0B1201D45
:10468000FEF764FEE06A01212A6981401143296135
:10469000384900EB8000DC3901EB8000211DFEF77A
:1046A00031FEE06A2968C96A884207D32F494FF072
:1046B00080500860BFF34F8FBFF36F8FBDE870402D
:1046C00001F0ECB8102080F31188BFF34F8FBFF3D7
:1046D0006F8FFEE770BD2DE9F0410026040016D073
:1046E00001F001F91020EFF3118580F31188BFF379
:1046F0004F8FBFF36F8F2046FFF79CFF38B31C4FDF
:10470000386B60B11B4804F1180128381DE01020F7
:1047100080F31188BFF34F8FBFF36F8FFEE7E06A1E
:104720003968C96A884200D30126201DFEF70EFEB3
:10473000E06A01213A698140114339610D4900EB7A
:104740008000DC3901EB8000211DFEF7DBFD85F3E5
:104750001188304664E4074E054D143EA6F1C807A3
:104760004FF08058DFF8049018E0000004ED00E0FE
:1047700010000020EC04002001F074F8F068C46818
:10478000201DFEF7E3FDA868401EA8606868401E73
:10479000686001F083F8204600F074FD6868002826
:1047A000EAD138680128F9D9C9F80080BFF34F8FE2
:1047B000BFF36F8FF2E71CB5F6480024CDE9004047
:1047C00023468222F4A1F648FFF72CFC012803D1EE
:1047D00000F037FE012809D0401C1AD1102080F3C8
:1047E0001188BFF34F8FBFF36F8FFEE7102080F368
:1047F0001188BFF34F8FBFF36F8FE6484FF0FF3143
:104800002C38816201214161C460BDE81C4000F088
:10481000ABBF1CBD102080F31188BFF34F8FBFF3D7
:104820006F8FDC4900202C39486101F00DB8D94860
:104830002C38C068704710B501F055F8D5482C38B1
:10484000C06810BDD3482C388068704710B9D14873
:104850002C38006808B134307047102080F311887C
:10486000BFF34F8FBFF36F8FFEE72DE9F0410C468A
:10487000C84917462C39A8B1054605F13400C4E9EA
:104880000050E86A2061286BE061686CA060002637
:10489000E86CC4E90506052B12D00868854203D1EF
:1048A000267311E00D68E8E72373032B0CD1FFF7A3
:1048B00021FDA86A08B102202073FFF78CFC03E0F9
:1048C0002846FFF788FD207357B10021286B01E0CF
:1048D000401C491C0278A52AFAD08808208428E4C4
:1048E000268426E42DE9F0478146086892460C4666
:1048F0000025F8B1486801F1080640684860B042F8
:1049000001D140684860D0F80C80606842686260FD
:10491000B24201D151686160606805EBC50109EBE5
:104920008101C768534601223846FFF79EFF6D1C80
:104930004745EAD12846A8E42DE9F04717460A463C
:10494000064600240725FFF7D5FCDFF84882A8F1CA
:104950002C08D8F8080082423BD3DFF848926D1E3D
:1049600005EB850104EBC40009EB810106EB800037
:104970000122FFF7B7FF0444002DF0D104EBC4007F
:1049800006EB800002224546D8F83410FFF7AAFF54
:10499000044404EBC40006EB80000222A96BFFF77D
:1049A000A1FF04447F4904EBC40006EB800004220D
:1049B000C831FFF797FF04447A4904EBC40006EBC3
:1049C00080000322DC31FFF78DFF04440FB100208B
:1049D0003860FFF700FC204657E410B50C4650B194
:1049E0006C492C3909681831FEF798FC2046BDE85F
:1049F000104001214BE4102080F31188BFF34F8F4A
:104A0000BFF36F8FFEE710B5144680B1614B2C3BAE
:104A10001A6BA2B11A6841F000419161196818310E
:104A2000FEF770FC2046BDE8104001212FE4102065
:104A300080F31188BFF34F8FBFF36F8FFEE7102015
:104A400080F31188BFF34F8FBFF36F8FFEE770B510
:104A500014460D4668B14F492C3909681831FEF7E4
:104A600051FC0CB14FF0FF3521462846BDE870409F
:104A70000DE4102080F31188BFF34F8FBFF36F8FC9
:104A8000FEE72DE9F041C068C468B4B104F1180034
:104A90000746FEF75BFC3F4D2C3D286B0126A0B17D
:104AA00040483946B430FEF72DFCE06A2968C96AEF
:104AB00088421AD90120EE611BE4102080F311888E
:104AC000BFF34F8FBFF36F8FFEE7201DFEF73EFC55
:104AD000E06A2A6906FA00F111432961314900EBC5
:104AE000800001EB8000211DDDE700207CE470B533
:104AF000284D2C3D2A6BFAB141F000410160C46899
:104B000014B3FEF723FC201DFEF720FCE06A01260B
:104B10002A6906FA00F111432961224900EB80005D
:104B200001EB8000211DFEF7EDFBE06A2968C96AF0
:104B3000884200D9EE6170BD102080F31188BFF368
:104B40004F8FBFF36F8FFEE7102080F31188BFF304
:104B50004F8FBFF36F8FFEE710B504000BD000F04E
:104B600081FE0C482C38016A2160C0686060BDE895
:104B7000104000F093BE102080F31188BFF34F8FD8
:104B8000BFF36F8FFEE703492C390A6A0260C968D8
:104B9000416070473C00002049444C450000000043
:104BA00057470008100400202DE9F0410C4605008D
:104BB00011D0C4B100F056FEFE4EF1686B68226859
:104BC000C81A571C17D02F68366AB74218D08B42C4
:104BD00016D8012410E0102080F31188BFF34F8F06
:104BE000BFF36F8FFEE7102080F31188BFF34F8F64
:104BF000BFF36F8FFEE7002400F050FE204608E46C
:104C0000824205D9101A20602846FFF7BCFFF2E760
:104C100000202060DDE7E7490120C86170470028D7
:104C200000D0806C7047002800D081647047E14854
:104C300000687047DF48416919B1006B18B1002066
:104C40007047012070470220704770B504004FF094
:104C5000000039D0D74DE16A2A68D26A914234D235
:104C6000A069002804DB2868C06AC0F10700A061C1
:104C7000E06AD14E00EB8000616906EB8000814262
:104C80001ED1201DFEF762FB012150B9E06A00EB46
:104C9000800256F8222022B92A6901FA00F08243E4
:104CA0002A612868C06AE0622A698140114329614B
:104CB00000EB800006EB8000211DFEF723FB02E0E5
:104CC0002868C06AE062012070BDE16C2A68D26A7F
:104CD0009142F8D370BD70B504004FF0000041D090
:104CE000B44D29688C4207D0102080F31188BFF39F
:104CF0004F8FBFF36F8FFEE7216D71B1491E2165A4
:104D0000E36CE26A9A422DD000292BD1201DFEF7D8
:104D10001DFBA949012240B112E0102080F3118847
:104D2000BFF34F8FBFF36F8FFEE7E06A00EB8003A6
:104D300051F8233023B92B6902FA00F083432B6129
:104D4000E06CE062C0F10700A061E06A2B6982407C
:104D50001A432A6100EB800001EB8000211DFEF761
:104D6000D1FA012070BD70B50B4604004BD0226D06
:104D7000A2B1E16C994200D21946E06A884242D061
:104D8000012A40D18B4D2A6894420FD1102080F324
:104D90001188BFF34F8FBFF36F8FFEE7102080F3B2
:104DA0001188BFF34F8FBFF36F8FFEE7E162A269F7
:104DB000002A02DBC1F10701A1617F4E00EB8000F8
:104DC000616906EB800081421DD1201DFEF7BEFA0D
:104DD000012150B9E06A00EB800256F8222022B986
:104DE00001FA00F2286990432861E06A2A6981404B
:104DF0001143296100EB800006EB8000211DBDE816
:104E00007040FEF77FBA70BD6A4908680A68806919
:104E1000D26A0968C2F107028A6170476549086869
:104E200018B10868026D521C02650868704770B5B9
:104E30000C46064600F016FD5E4D2868406D80B9B0
:104E40002968012081F858005CB101212046FFF754
:104E50001EFA5A494FF080500860BFF34F8FBFF3DE
:104E60006F8F00F01BFD00F0FDFC2868446D0020F2
:104E700034B116B12968486502E02A68611E51659F
:104E8000296881F8580000F009FD204670BD2DE921
:104E9000F0411E4615468846074600F0E3FC454CA7
:104EA000206890F85800022814D02068416DB9435A
:104EB00041652168012081F858005EB1012130462A
:104EC000FFF7E5F93D494FF080500860BFF34F8F81
:104ED000BFF36F8F00F0E2FC00F0C4FC15B1206856
:104EE000406D2860206890F85800022801D0002505
:104EF00005E02068416D21EA08014165012521682E
:104F0000002081F8580000F0C9FC284622E42DE971
:104F1000F0411F4690460D46012690B1044600F030
:104F2000A1FC0FB1606D386094F85800022184F83C
:104F30005810B8F1050F19D2DFE808F0230B0E1452
:104F40001200102080F31188BFF34F8FBFF36F8FD3
:104F5000FEE7616D294301E0616D491C616510E068
:104F6000022801D065650CE000263DE0616D491C1A
:104F700007D0102080F31188BFF34F8FBFF36F8FDE
:104F8000FEE7012830D1201DFEF7E0F9094DE06A67
:104F900001212A69814011432961074900EB800002
:104FA00001EB8000211DFEF7ADF9A06A78B1102059
:104FB00006E00000100000201004002004ED00E0D6
:104FC00080F31188BFF34F8FBFF36F8FFEE7E06A66
:104FD0002968C96A884207D9AF494FF080500860F4
:104FE000BFF34F8FBFF36F8F00F058FC304676E46D
:104FF0002DE9F0471F46DDF8209092460D4604004B
:105000004FF001081AD000F06EFC1020EFF311866B
:1050100080F31188BFF34F8FBFF36F8F0FB1606DB7
:10502000386094F85800022184F85810BAF1050F3E
:105030001AD2DFE80AF0240B0E141200102080F3BD
:105040001188BFF34F8FBFF36F8FFEE7616D294368
:1050500001E0616D491C616511E0022801D06565C0
:105060000DE04FF000082AE0616D491C07D01020C8
:1050700080F31188BFF34F8FBFF36F8FFEE70128D6
:105080001DD1A06A38B1102080F31188BFF34F8F73
:10509000BFF36F8FFEE7814D286B012798B104F1B4
:1050A00018017F48FEF72EF9E06A2968C96A88422C
:1050B00005D9B9F1000F01D0C9F80070EF6186F38E
:1050C0001188404637E4201DFEF740F9E06A2A695E
:1050D00007FA00F111432961714900EB8000B439EE
:1050E00001EB8000211DDDE72DE9F0418846040039
:1050F00015D000F0F8FB1020EFF3118780F3118832
:10510000BFF34F8FBFF36F8F94F85800022184F8DC
:105110005810616D491C6165012808D025E01020F8
:1051200080F31188BFF34F8FBFF36F8FFEE7A06A44
:1051300038B1102080F31188BFF34F8FBFF36F8F0A
:10514000FEE7564D286B012690B104F11801544832
:10515000FEF7D8F8E06A2968C96A884205D9B8F12B
:10516000000F01D0C8F80060EE6187F31188A3E456
:10517000201DFEF7EBF8E06A2A6906FA00F11143F8
:105180002961474900EB8000B43901EB8000211D03
:10519000DEE710B558B1044600F064FB94F85800FF
:1051A000022807D0002400F079FB204610BD3B48C0
:1051B0000468F1E7002084F858000124F3E72DE9A2
:1051C000F0479946DDE90984089D17460E0082469E
:1051D00016D0B900A522206B08F0F4FC6FF0030193
:1051E000206B01EB8701084420F0070778070FD0F8
:1051F000102080F31188BFF34F8FBFF36F8FFEE74E
:10520000102080F31188BFF34F8FBFF36F8FFEE73D
:105210002218315C82F83410315C11B1401C0F2827
:10522000F6D3002684F84260072D00D30625E562F8
:10523000C4E91356201DFEF762F804F11800FEF7CA
:105240005EF82461C5F107006462A061666584F8B8
:1052500058604A465146384600F062FA2060B8F17C
:10526000000F01D0C8F800402CE70C48416B0968DA
:1052700029B1416BC968C9684968816270474FF0BC
:10528000FF31FAE710B50446006B00F0EEFB204654
:10529000BDE8104000F0E9BB04ED00E01000002084
:1052A000C404002070B500244160FF4D00619142AC
:1052B00006D8D11A8269914206D2011D286907E0F9
:1052C0009A4203D2994201D3012403E0011DE86808
:1052D000FEF724F8204670BDFEB51F460300089E69
:1052E0004FF0000013D0F04D2C68002C0ED08DE84C
:1052F0000E00062915DAFFF79DFC02284FF0000387
:105300000DD0002269462868FEF709F9FEBD10207D
:1053100080F31188BFF34F8FBFF36F8FFEE73246E4
:10532000F0E700233A4669462046FEF7D2FAFEBD72
:1053300030B585B0DC4D4BE00198002848DB039C7C
:10534000606910B1201DFEF701F804A800F02AF9E9
:10535000024601980A283BD2DFE800F00505053A2D
:10536000263705053A260298A169034601442046DE
:10537000FFF798FF00B3616A20468847E06901287B
:1053800026D1002000900298A169002342181946F6
:105390002046FFF7A1FF78B9102080F31188BFF3F2
:1053A0004F8FBFF36F8FFEE70298A06128B181187D
:1053B00013462046FFF776FF0AE0102080F311889D
:1053C000BFF34F8FBFF36F8FFEE7204600F04DFB1A
:1053D000002201A92868FEF73BFB0028ACD105B0EC
:1053E00030BDB14CE068016839B1002139B100200D
:1053F00000F0EAF8FFF79CFFF4E70121F6E7C06848
:105400000068F5E710B500F02DFAA74C2068A0B9A8
:10541000A648FDF769FFA5481430FDF765FFA348CE
:10542000E0601430206100220C210A20FDF7E4FF27
:10543000206010B19EA1FEF73EFDBDE8104000F0D7
:105440002DBA1CB5FFF7DEFF9748006868B1964992
:105450000220091DCDE9000100234FF4827296A1BC
:105460009748FEF7DFFD002807D1102080F3118850
:10547000BFF34F8FBFF36F8FFEE71CBD2DE9F047E1
:105480000746994616460D462C20DDF820A000F070
:1054900083FA04000ED0B8464F46D1466DB1FFF7EF
:1054A000B1FF04F11801C4F8008081E8E002201D7A
:1054B000FDF725FF2046BDE8F087102080F3118816
:1054C000BFF34F8FBFF36F8FFEE777484068002828
:1054D00007D1102080F31188BFF34F8FBFF36F8F78
:1054E000FEE7704708B180697047102080F311888B
:1054F000BFF34F8FBFF36F8FFEE708B1406870476F
:10550000102080F31188BFF34F8FBFF36F8FFEE73A
:1055100008B100687047102080F31188BFF34F8FE7
:10552000BFF36F8FFEE710B5040008D000F09AF9C2
:10553000606960B1012400F0B1F9204610BD10206F
:1055400080F31188BFF34F8FBFF36F8FFEE7002406
:10555000F1E710B5040006D000F084F9246A00F0E9
:105560009DF9204610BD102080F31188BFF34F8FA6
:10557000BFF36F8FFEE770B50D46040006D000F054
:1055800071F92562BDE8704000F088B9102080F301
:105590001188BFF34F8FBFF36F8FFEE7806A7047AC
:1055A0008162704770B50546FFF741F93E4E0446EB
:1055B000B068844203D200F05DF8012000E00020D2
:1055C00028602046B46070BD2DE9FC410E460546BA
:1055D000FEF790FE01A8FFF7E5FF0446019818B119
:1055E000FEF7F9FDBDE8FC812F4FAEB138690068C8
:1055F000A8B30026291B32463868FEF77DFCFEF76B
:10560000EAFD0028EED12F494FF080500860BFF32B
:105610004F8FBFF36F8FE5E7A542EBD8FEF7DBFDB9
:10562000F8682646C068C468201DFDF78FFEE06953
:10563000012810D1A0692B46411932462046FFF7B8
:1056400031FE40B100200346014600902A46204624
:10565000FFF742FE20B1616A20468847C2E707E0B3
:10566000102080F31188BFF34F8FBFF36F8FFEE7D9
:105670000126BFE7F8B50C4E2FE0C068C468056886
:10568000201DFDF763FE616A20468847E069012816
:1056900023D1A0692844A84216D924616060211D45
:1056A000F068FDF73BFE18E04C00002000050020EC
:1056B000546D725100000000546D722053766300E7
:1056C000E353000804ED00E000200346014600908B
:1056D0002A462046FFF700FE38B1F068016800292D
:1056E000CBD13169C6E90310F8BD102080F31188D1
:1056F000BFF34F8FBFF36F8FFEE700008D48406808
:10570000401C4FF0100080F3118804D0BFF34F8F7E
:10571000BFF36F8FFEE7BFF34F8FBFF36F8FFEE7CF
:1057200010B5031F4FF080741C601B1F21F0010196
:105730001960191F804B0B6014390A60091F6FF044
:10574000020244380A6010BD4FF0E02000210161E0
:1057500081617A494FF47A720968B1FBF2F1491E0E
:1057600041610721016170471CB575480168754AA0
:10577000914207D1102080F31188BFF34F8FBFF300
:105780006F8FFEE700686F49491E884207D11020DD
:1057900080F31188BFF34F8FBFF36F8FFEE76A4925
:1057A00008780190FF20087008788DF800009DF8B7
:1057B00000009DF8002000F0F000904207D010207B
:1057C00080F31188BFF34F8FBFF36F8FFEE79DF813
:1057D0000000584B00F0100018700720986006E099
:1057E000401E98609DF8000040008DF800009DF874
:1057F000000000069868F3D4032807D0102080F337
:105800001188BFF34F8FBFF36F8FFEE74FF44070E7
:105810009860019808704A482030016841F470018E
:105820000160016841F070410160FFF78DFF0020C9
:105830005860FAF7D7FC4548016841F040410160E3
:10584000FAF7BCFC00201CBD3A484068B0F57A7FEE
:1058500007D0102080F31188BFF34F8FBFF36F8FF5
:10586000FEE77047102080F31188BFF34F8FBFF31E
:105870006F8F30494868401C486001280DD130487E
:10588000001D006810F0FF0F07D0102080F3118872
:10589000BFF34F8FBFF36F8FFEE77047254948680E
:1058A00028B1401E486001D180F311887047102054
:1058B00080F31188BFF34F8FBFF36F8FFEE710B5F2
:1058C000102080F31188BFF34F8FBFF36F8FFEF767
:1058D00023FC20B11A494FF08050091D08600020B8
:1058E00080F3118810BD10B5FAF7B4FC11491028E7
:1058F0000ED300F1E02090F8F0030A78904207D22E
:10590000102080F31188BFF34F8FBFF36F8FFEE736
:105910000B480C300068896800F4E060884207D9C1
:10592000102080F31188BFF34F8FBFF36F8FFEE716
:1059300010BD000060000020FD560008C8030020D4
:1059400000ED00E071C20F4100E400E034EF00E040
:1059500030B5714900E011460A688242FBD34B68BA
:105960005C18844203D14068184448600846436884
:105970001C18944209D1684C103C2468A24209D0FA
:1059800052681A4442600A6812680260814200D07C
:10599000086030BD0460F9E72DE9F04105460026B6
:1059A000FEF7A8FC5C4F103F386808B900F093F888
:1059B000F86805424AD1BDB3083568070ED005F036
:1059C0000700C0F108000544680707D0102080F3E5
:1059D0001188BFF34F8FBFF36F8FFEE725B3786851
:1059E000854233D84C490846046801E02146044604
:1059F0006068A84202D220680028F7D13868844243
:105A000024D00E682068086060680836411B1029A1
:105A10000FD96019420708D0102080F31188BFF316
:105A20004F8FBFF36F8FFEE710E041606560FFF7B7
:105A30008FFF61687868401A7860BA68904200D237
:105A4000B860F86801430020C4E90001FEF7C3FB19
:105A5000700707D0102080F31188BFF34F8FBFF37A
:105A60006F8FFEE73046BDE8F08170B5002828D082
:105A7000294DA0F10804103D6068E968084207D18B
:105A8000102080F31188BFF34F8FBFF36F8FFEE7B5
:105A900022683AB1102080F31188BFF34F8FBFF313
:105AA0006F8FFEE788436060FEF724FC60686968DA
:105AB000084468602046FFF74BFFBDE87040FEF7E2
:105AC0008ABB70BD144810384068704712481038BF
:105AD00080687047704711484FF49631420706D0EE
